{
  "_format": "hh-sol-artifact-1",
  "contractName": "FreeERC1155",
  "sourceName": "contracts/FreeERC1155.sol",
  "abi": [
    {
      "anonymous": false,
      "inputs": [
        {
          "indexed": true,
          "internalType": "address",
          "name": "owner",
          "type": "address"
        },
        {
          "indexed": true,
          "internalType": "address",
          "name": "operator",
          "type": "address"
        },
        {
          "indexed": false,
          "internalType": "bool",
          "name": "approved",
          "type": "bool"
        }
      ],
      "name": "ApprovalForAll",
      "type": "event"
    },
    {
      "anonymous": false,
      "inputs": [
        {
          "indexed": true,
          "internalType": "address",
          "name": "operator",
          "type": "address"
        },
        {
          "indexed": true,
          "internalType": "address",
          "name": "from",
          "type": "address"
        },
        {
          "indexed": true,
          "internalType": "address",
          "name": "to",
          "type": "address"
        },
        {
          "indexed": false,
          "internalType": "uint256[]",
          "name": "ids",
          "type": "uint256[]"
        },
        {
          "indexed": false,
          "internalType": "uint256[]",
          "name": "amounts",
          "type": "uint256[]"
        }
      ],
      "name": "TransferBatch",
      "type": "event"
    },
    {
      "anonymous": false,
      "inputs": [
        {
          "indexed": true,
          "internalType": "address",
          "name": "operator",
          "type": "address"
        },
        {
          "indexed": true,
          "internalType": "address",
          "name": "from",
          "type": "address"
        },
        {
          "indexed": true,
          "internalType": "address",
          "name": "to",
          "type": "address"
        },
        {
          "indexed": false,
          "internalType": "uint256",
          "name": "id",
          "type": "uint256"
        },
        {
          "indexed": false,
          "internalType": "uint256",
          "name": "amount",
          "type": "uint256"
        }
      ],
      "name": "TransferSingle",
      "type": "event"
    },
    {
      "anonymous": false,
      "inputs": [
        {
          "indexed": false,
          "internalType": "string",
          "name": "value",
          "type": "string"
        },
        {
          "indexed": true,
          "internalType": "uint256",
          "name": "id",
          "type": "uint256"
        }
      ],
      "name": "URI",
      "type": "event"
    },
    {
      "inputs": [
        {
          "internalType": "address",
          "name": "",
          "type": "address"
        },
        {
          "internalType": "uint256",
          "name": "",
          "type": "uint256"
        }
      ],
      "name": "balanceOf",
      "outputs": [
        {
          "internalType": "uint256",
          "name": "",
          "type": "uint256"
        }
      ],
      "stateMutability": "view",
      "type": "function"
    },
    {
      "inputs": [
        {
          "internalType": "address[]",
          "name": "owners",
          "type": "address[]"
        },
        {
          "internalType": "uint256[]",
          "name": "ids",
          "type": "uint256[]"
        }
      ],
      "name": "balanceOfBatch",
      "outputs": [
        {
          "internalType": "uint256[]",
          "name": "balances",
          "type": "uint256[]"
        }
      ],
      "stateMutability": "view",
      "type": "function"
    },
    {
      "inputs": [
        {
          "internalType": "address",
          "name": "",
          "type": "address"
        },
        {
          "internalType": "address",
          "name": "",
          "type": "address"
        }
      ],
      "name": "isApprovedForAll",
      "outputs": [
        {
          "internalType": "bool",
          "name": "",
          "type": "bool"
        }
      ],
      "stateMutability": "view",
      "type": "function"
    },
    {
      "inputs": [
        {
          "internalType": "address",
          "name": "to",
          "type": "address"
        },
        {
          "internalType": "uint256",
          "name": "id",
          "type": "uint256"
        },
        {
          "internalType": "uint256",
          "name": "amount",
          "type": "uint256"
        }
      ],
      "name": "mint",
      "outputs": [],
      "stateMutability": "nonpayable",
      "type": "function"
    },
    {
      "inputs": [
        {
          "internalType": "address",
          "name": "from",
          "type": "address"
        },
        {
          "internalType": "address",
          "name": "to",
          "type": "address"
        },
        {
          "internalType": "uint256[]",
          "name": "ids",
          "type": "uint256[]"
        },
        {
          "internalType": "uint256[]",
          "name": "amounts",
          "type": "uint256[]"
        },
        {
          "internalType": "bytes",
          "name": "data",
          "type": "bytes"
        }
      ],
      "name": "safeBatchTransferFrom",
      "outputs": [],
      "stateMutability": "nonpayable",
      "type": "function"
    },
    {
      "inputs": [
        {
          "internalType": "address",
          "name": "from",
          "type": "address"
        },
        {
          "internalType": "address",
          "name": "to",
          "type": "address"
        },
        {
          "internalType": "uint256",
          "name": "id",
          "type": "uint256"
        },
        {
          "internalType": "uint256",
          "name": "amount",
          "type": "uint256"
        },
        {
          "internalType": "bytes",
          "name": "data",
          "type": "bytes"
        }
      ],
      "name": "safeTransferFrom",
      "outputs": [],
      "stateMutability": "nonpayable",
      "type": "function"
    },
    {
      "inputs": [
        {
          "internalType": "address",
          "name": "operator",
          "type": "address"
        },
        {
          "internalType": "bool",
          "name": "approved",
          "type": "bool"
        }
      ],
      "name": "setApprovalForAll",
      "outputs": [],
      "stateMutability": "nonpayable",
      "type": "function"
    },
    {
      "inputs": [
        {
          "internalType": "bytes4",
          "name": "interfaceId",
          "type": "bytes4"
        }
      ],
      "name": "supportsInterface",
      "outputs": [
        {
          "internalType": "bool",
          "name": "",
          "type": "bool"
        }
      ],
      "stateMutability": "pure",
      "type": "function"
    }
  ],
  "bytecode": "0x608060405234801561001057600080fd5b50611cbe806100206000396000f3fe608060405234801561001057600080fd5b50600436106100875760003560e01c80634e1273f41161005b5780634e1273f414610124578063a22cb46514610154578063e985e9c514610170578063f242432a146101a057610087565b8062fdd58e1461008c57806301ffc9a7146100bc578063156e29f6146100ec5780632eb2c2d614610108575b600080fd5b6100a660048036038101906100a19190611490565b6101bc565b6040516100b3919061191a565b60405180910390f35b6100d660048036038101906100d19190611587565b6101e1565b6040516100e3919061189f565b60405180910390f35b610106600480360381019061010191906114cc565b610273565b005b610122600480360381019061011d9190611306565b610293565b005b61013e6004803603810190610139919061151b565b61075d565b60405161014b9190611846565b60405180910390f35b61016e60048036038101906101699190611454565b61094f565b005b61018a600480360381019061018591906112ca565b610a4c565b604051610197919061189f565b60405180910390f35b6101ba60048036038101906101b591906113c5565b610a7b565b005b6000602052816000526040600020602052806000526040600020600091509150505481565b60006301ffc9a760e01b827bffffffffffffffffffffffffffffffffffffffffffffffffffffffff1916148061023c575063d9b67a2660e01b827bffffffffffffffffffffffffffffffffffffffffffffffffffffffff1916145b8061026c5750630e89341c60e01b827bffffffffffffffffffffffffffffffffffffffffffffffffffffffff1916145b9050919050565b61028e83838360405180602001604052806000815250610e56565b505050565b600083519050825181146102dc576040517f08c379a00000000000000000000000000000000000000000000000000000000081526004016102d3906118da565b60405180910390fd5b8573ffffffffffffffffffffffffffffffffffffffff163373ffffffffffffffffffffffffffffffffffffffff16148061039c5750600160008773ffffffffffffffffffffffffffffffffffffffff1673ffffffffffffffffffffffffffffffffffffffff16815260200190815260200160002060003373ffffffffffffffffffffffffffffffffffffffff1673ffffffffffffffffffffffffffffffffffffffff16815260200190815260200160002060009054906101000a900460ff165b6103db576040517f08c379a00000000000000000000000000000000000000000000000000000000081526004016103d2906118fa565b60405180910390fd5b60005b8181101561054b576000858281518110610421577f4e487b7100000000000000000000000000000000000000000000000000000000600052603260045260246000fd5b602002602001015190506000858381518110610466577f4e487b7100000000000000000000000000000000000000000000000000000000600052603260045260246000fd5b60200260200101519050806000808b73ffffffffffffffffffffffffffffffffffffffff1673ffffffffffffffffffffffffffffffffffffffff168152602001908152602001600020600084815260200190815260200160002060008282546104cf9190611ad3565b92505081905550806000808a73ffffffffffffffffffffffffffffffffffffffff1673ffffffffffffffffffffffffffffffffffffffff168152602001908152602001600020600084815260200190815260200160002060008282546105359190611a7d565b92505081905550828060010193505050506103de565b508473ffffffffffffffffffffffffffffffffffffffff168673ffffffffffffffffffffffffffffffffffffffff163373ffffffffffffffffffffffffffffffffffffffff167f4a39dc06d4c0dbc64b70af90fd698a233a518aa5d07e595d983b8c0526c8f7fb87876040516105c2929190611868565b60405180910390a460008573ffffffffffffffffffffffffffffffffffffffff16803b806020016040519081016040528181526000908060200190933c51146106e45763bc197c8160e01b7bffffffffffffffffffffffffffffffffffffffffffffffffffffffff19168573ffffffffffffffffffffffffffffffffffffffff1663bc197c8133898888886040518663ffffffff1660e01b815260040161066d959493929190611784565b602060405180830381600087803b15801561068757600080fd5b505af115801561069b573d6000803e3d6000fd5b505050506040513d601f19601f820116820180604052508101906106bf91906115b0565b7bffffffffffffffffffffffffffffffffffffffffffffffffffffffff191614610716565b600073ffffffffffffffffffffffffffffffffffffffff168573ffffffffffffffffffffffffffffffffffffffff1614155b610755576040517f08c379a000000000000000000000000000000000000000000000000000000000815260040161074c906118ba565b60405180910390fd5b505050505050565b6060600083519050825181146107a8576040517f08c379a000000000000000000000000000000000000000000000000000000000815260040161079f906118da565b60405180910390fd5b835167ffffffffffffffff8111156107e9577f4e487b7100000000000000000000000000000000000000000000000000000000600052604160045260246000fd5b6040519080825280602002602001820160405280156108175781602001602082028036833780820191505090505b50915060005b8181101561094757600080868381518110610861577f4e487b7100000000000000000000000000000000000000000000000000000000600052603260045260246000fd5b602002602001015173ffffffffffffffffffffffffffffffffffffffff1673ffffffffffffffffffffffffffffffffffffffff16815260200190815260200160002060008583815181106108de577f4e487b7100000000000000000000000000000000000000000000000000000000600052603260045260246000fd5b602002602001015181526020019081526020016000205483828151811061092e577f4e487b7100000000000000000000000000000000000000000000000000000000600052603260045260246000fd5b602002602001018181525050808060010191505061081d565b505092915050565b80600160003373ffffffffffffffffffffffffffffffffffffffff1673ffffffffffffffffffffffffffffffffffffffff16815260200190815260200160002060008473ffffffffffffffffffffffffffffffffffffffff1673ffffffffffffffffffffffffffffffffffffffff16815260200190815260200160002060006101000a81548160ff0219169083151502179055508173ffffffffffffffffffffffffffffffffffffffff163373ffffffffffffffffffffffffffffffffffffffff167f17307eab39ab6107e8899845ad3d59bd9653f200f220920489ca2b5937696c3183604051610a40919061189f565b60405180910390a35050565b60016020528160005260406000206020528060005260406000206000915091509054906101000a900460ff1681565b8473ffffffffffffffffffffffffffffffffffffffff163373ffffffffffffffffffffffffffffffffffffffff161480610b3b5750600160008673ffffffffffffffffffffffffffffffffffffffff1673ffffffffffffffffffffffffffffffffffffffff16815260200190815260200160002060003373ffffffffffffffffffffffffffffffffffffffff1673ffffffffffffffffffffffffffffffffffffffff16815260200190815260200160002060009054906101000a900460ff165b610b7a576040517f08c379a0000000000000000000000000000000000000000000000000000000008152600401610b71906118fa565b60405180910390fd5b816000808773ffffffffffffffffffffffffffffffffffffffff1673ffffffffffffffffffffffffffffffffffffffff16815260200190815260200160002060008581526020019081526020016000206000828254610bd99190611ad3565b92505081905550816000808673ffffffffffffffffffffffffffffffffffffffff1673ffffffffffffffffffffffffffffffffffffffff16815260200190815260200160002060008581526020019081526020016000206000828254610c3f9190611a7d565b925050819055508373ffffffffffffffffffffffffffffffffffffffff168573ffffffffffffffffffffffffffffffffffffffff163373ffffffffffffffffffffffffffffffffffffffff167fc3d58168c5ae7397731d063d5bbf3d657854427343f4c083240f7aacaa2d0f628686604051610cbc929190611935565b60405180910390a460008473ffffffffffffffffffffffffffffffffffffffff16803b806020016040519081016040528181526000908060200190933c5114610dde5763f23a6e6160e01b7bffffffffffffffffffffffffffffffffffffffffffffffffffffffff19168473ffffffffffffffffffffffffffffffffffffffff1663f23a6e6133888787876040518663ffffffff1660e01b8152600401610d679594939291906117ec565b602060405180830381600087803b158015610d8157600080fd5b505af1158015610d95573d6000803e3d6000fd5b505050506040513d601f19601f82011682018060405250810190610db991906115b0565b7bffffffffffffffffffffffffffffffffffffffffffffffffffffffff191614610e10565b600073ffffffffffffffffffffffffffffffffffffffff168473ffffffffffffffffffffffffffffffffffffffff1614155b610e4f576040517f08c379a0000000000000000000000000000000000000000000000000000000008152600401610e46906118ba565b60405180910390fd5b5050505050565b816000808673ffffffffffffffffffffffffffffffffffffffff1673ffffffffffffffffffffffffffffffffffffffff16815260200190815260200160002060008581526020019081526020016000206000828254610eb59190611a7d565b925050819055508373ffffffffffffffffffffffffffffffffffffffff16600073ffffffffffffffffffffffffffffffffffffffff163373ffffffffffffffffffffffffffffffffffffffff167fc3d58168c5ae7397731d063d5bbf3d657854427343f4c083240f7aacaa2d0f628686604051610f33929190611935565b60405180910390a460008473ffffffffffffffffffffffffffffffffffffffff16803b806020016040519081016040528181526000908060200190933c51146110565763f23a6e6160e01b7bffffffffffffffffffffffffffffffffffffffffffffffffffffffff19168473ffffffffffffffffffffffffffffffffffffffff1663f23a6e613360008787876040518663ffffffff1660e01b8152600401610fdf9594939291906117ec565b602060405180830381600087803b158015610ff957600080fd5b505af115801561100d573d6000803e3d6000fd5b505050506040513d601f19601f8201168201806040525081019061103191906115b0565b7bffffffffffffffffffffffffffffffffffffffffffffffffffffffff191614611088565b600073ffffffffffffffffffffffffffffffffffffffff168473ffffffffffffffffffffffffffffffffffffffff1614155b6110c7576040517f08c379a00000000000000000000000000000000000000000000000000000000081526004016110be906118ba565b60405180910390fd5b50505050565b60006110e06110db8461198f565b61195e565b905080838252602082019050828560208602820111156110ff57600080fd5b60005b8581101561112f578161111588826111e3565b845260208401935060208301925050600181019050611102565b5050509392505050565b600061114c611147846119bb565b61195e565b9050808382526020820190508285602086028201111561116b57600080fd5b60005b8581101561119b578161118188826112b5565b84526020840193506020830192505060018101905061116e565b5050509392505050565b60006111b86111b3846119e7565b61195e565b9050828152602081018484840111156111d057600080fd5b6111db848285611b7b565b509392505050565b6000813590506111f281611c2c565b92915050565b600082601f83011261120957600080fd5b81356112198482602086016110cd565b91505092915050565b600082601f83011261123357600080fd5b8135611243848260208601611139565b91505092915050565b60008135905061125b81611c43565b92915050565b60008135905061127081611c5a565b92915050565b60008151905061128581611c5a565b92915050565b600082601f83011261129c57600080fd5b81356112ac8482602086016111a5565b91505092915050565b6000813590506112c481611c71565b92915050565b600080604083850312156112dd57600080fd5b60006112eb858286016111e3565b92505060206112fc858286016111e3565b9150509250929050565b600080600080600060a0868803121561131e57600080fd5b600061132c888289016111e3565b955050602061133d888289016111e3565b945050604086013567ffffffffffffffff81111561135a57600080fd5b61136688828901611222565b935050606086013567ffffffffffffffff81111561138357600080fd5b61138f88828901611222565b925050608086013567ffffffffffffffff8111156113ac57600080fd5b6113b88882890161128b565b9150509295509295909350565b600080600080600060a086880312156113dd57600080fd5b60006113eb888289016111e3565b95505060206113fc888289016111e3565b945050604061140d888289016112b5565b935050606061141e888289016112b5565b925050608086013567ffffffffffffffff81111561143b57600080fd5b6114478882890161128b565b9150509295509295909350565b6000806040838503121561146757600080fd5b6000611475858286016111e3565b92505060206114868582860161124c565b9150509250929050565b600080604083850312156114a357600080fd5b60006114b1858286016111e3565b92505060206114c2858286016112b5565b9150509250929050565b6000806000606084860312156114e157600080fd5b60006114ef868287016111e3565b9350506020611500868287016112b5565b9250506040611511868287016112b5565b9150509250925092565b6000806040838503121561152e57600080fd5b600083013567ffffffffffffffff81111561154857600080fd5b611554858286016111f8565b925050602083013567ffffffffffffffff81111561157157600080fd5b61157d85828601611222565b9150509250929050565b60006020828403121561159957600080fd5b60006115a784828501611261565b91505092915050565b6000602082840312156115c257600080fd5b60006115d084828501611276565b91505092915050565b60006115e58383611766565b60208301905092915050565b6115fa81611b07565b82525050565b600061160b82611a27565b6116158185611a4a565b935061162083611a17565b8060005b8381101561165157815161163888826115d9565b975061164383611a3d565b925050600181019050611624565b5085935050505092915050565b61166781611b19565b82525050565b600061167882611a32565b6116828185611a5b565b9350611692818560208601611b8a565b61169b81611c1b565b840191505092915050565b60006116b3601083611a6c565b91507f554e534146455f524543495049454e54000000000000000000000000000000006000830152602082019050919050565b60006116f3600f83611a6c565b91507f4c454e4754485f4d49534d4154434800000000000000000000000000000000006000830152602082019050919050565b6000611733600e83611a6c565b91507f4e4f545f415554484f52495a45440000000000000000000000000000000000006000830152602082019050919050565b61176f81611b71565b82525050565b61177e81611b71565b82525050565b600060a08201905061179960008301886115f1565b6117a660208301876115f1565b81810360408301526117b88186611600565b905081810360608301526117cc8185611600565b905081810360808301526117e0818461166d565b90509695505050505050565b600060a08201905061180160008301886115f1565b61180e60208301876115f1565b61181b6040830186611775565b6118286060830185611775565b818103608083015261183a818461166d565b90509695505050505050565b600060208201905081810360008301526118608184611600565b905092915050565b600060408201905081810360008301526118828185611600565b905081810360208301526118968184611600565b90509392505050565b60006020820190506118b4600083018461165e565b92915050565b600060208201905081810360008301526118d3816116a6565b9050919050565b600060208201905081810360008301526118f3816116e6565b9050919050565b6000602082019050818103600083015261191381611726565b9050919050565b600060208201905061192f6000830184611775565b92915050565b600060408201905061194a6000830185611775565b6119576020830184611775565b9392505050565b6000604051905081810181811067ffffffffffffffff8211171561198557611984611bec565b5b8060405250919050565b600067ffffffffffffffff8211156119aa576119a9611bec565b5b602082029050602081019050919050565b600067ffffffffffffffff8211156119d6576119d5611bec565b5b602082029050602081019050919050565b600067ffffffffffffffff821115611a0257611a01611bec565b5b601f19601f8301169050602081019050919050565b6000819050602082019050919050565b600081519050919050565b600081519050919050565b6000602082019050919050565b600082825260208201905092915050565b600082825260208201905092915050565b600082825260208201905092915050565b6000611a8882611b71565b9150611a9383611b71565b9250827fffffffffffffffffffffffffffffffffffffffffffffffffffffffffffffffff03821115611ac857611ac7611bbd565b5b828201905092915050565b6000611ade82611b71565b9150611ae983611b71565b925082821015611afc57611afb611bbd565b5b828203905092915050565b6000611b1282611b51565b9050919050565b60008115159050919050565b60007fffffffff0000000000000000000000000000000000000000000000000000000082169050919050565b600073ffffffffffffffffffffffffffffffffffffffff82169050919050565b6000819050919050565b82818337600083830152505050565b60005b83811015611ba8578082015181840152602081019050611b8d565b83811115611bb7576000848401525b50505050565b7f4e487b7100000000000000000000000000000000000000000000000000000000600052601160045260246000fd5b7f4e487b7100000000000000000000000000000000000000000000000000000000600052604160045260246000fd5b6000601f19601f8301169050919050565b611c3581611b07565b8114611c4057600080fd5b50565b611c4c81611b19565b8114611c5757600080fd5b50565b611c6381611b25565b8114611c6e57600080fd5b50565b611c7a81611b71565b8114611c8557600080fd5b5056fea26469706673582212201807a2e1fa4089cd32d2af210ab1802a142dae709853056b41ba7ff6221bd98f64736f6c63430008000033",
  "linkReferences": {},
  "deployedLinkReferences": {}
}