{
  "_format": "hh-sol-artifact-1",
  "contractName": "MarketPlace",
  "sourceName": "contracts/MarketPlace.sol",
  "abi": [
    {
      "anonymous": false,
      "inputs": [
        {
          "indexed": true,
          "internalType": "address",
          "name": "buyer",
          "type": "address"
        },
        {
          "indexed": true,
          "internalType": "address",
          "name": "seller",
          "type": "address"
        },
        {
          "indexed": true,
          "internalType": "address",
          "name": "tokenAddress",
          "type": "address"
        },
        {
          "indexed": false,
          "internalType": "uint256",
          "name": "id",
          "type": "uint256"
        },
        {
          "indexed": false,
          "internalType": "uint256",
          "name": "amount",
          "type": "uint256"
        },
        {
          "indexed": false,
          "internalType": "uint256",
          "name": "price",
          "type": "uint256"
        }
      ],
      "name": "BuyItem",
      "type": "event"
    },
    {
      "anonymous": false,
      "inputs": [
        {
          "indexed": true,
          "internalType": "address",
          "name": "seller",
          "type": "address"
        },
        {
          "indexed": true,
          "internalType": "address",
          "name": "tokenAddress",
          "type": "address"
        },
        {
          "indexed": false,
          "internalType": "uint256",
          "name": "id",
          "type": "uint256"
        },
        {
          "indexed": false,
          "internalType": "uint256",
          "name": "amount",
          "type": "uint256"
        },
        {
          "indexed": false,
          "internalType": "uint256",
          "name": "price",
          "type": "uint256"
        }
      ],
      "name": "ListItem",
      "type": "event"
    },
    {
      "anonymous": false,
      "inputs": [
        {
          "indexed": true,
          "internalType": "address",
          "name": "seller",
          "type": "address"
        },
        {
          "indexed": true,
          "internalType": "address",
          "name": "tokenAddress",
          "type": "address"
        },
        {
          "indexed": false,
          "internalType": "uint256",
          "name": "id",
          "type": "uint256"
        },
        {
          "indexed": false,
          "internalType": "uint256",
          "name": "amount",
          "type": "uint256"
        }
      ],
      "name": "RemoveItem",
      "type": "event"
    },
    {
      "inputs": [
        {
          "internalType": "address payable",
          "name": "_seller",
          "type": "address"
        },
        {
          "internalType": "address",
          "name": "_tokenAddress",
          "type": "address"
        },
        {
          "internalType": "uint256",
          "name": "_id",
          "type": "uint256"
        },
        {
          "internalType": "uint256",
          "name": "_amount",
          "type": "uint256"
        }
      ],
      "name": "buyItem",
      "outputs": [],
      "stateMutability": "payable",
      "type": "function"
    },
    {
      "inputs": [
        {
          "internalType": "address",
          "name": "_seller",
          "type": "address"
        },
        {
          "internalType": "address",
          "name": "_tokenAddress",
          "type": "address"
        },
        {
          "internalType": "uint256",
          "name": "_id",
          "type": "uint256"
        }
      ],
      "name": "checkItem",
      "outputs": [
        {
          "internalType": "uint256",
          "name": "_amount",
          "type": "uint256"
        },
        {
          "internalType": "uint256",
          "name": "_price",
          "type": "uint256"
        }
      ],
      "stateMutability": "view",
      "type": "function"
    },
    {
      "inputs": [
        {
          "internalType": "bytes32",
          "name": "",
          "type": "bytes32"
        }
      ],
      "name": "inventory",
      "outputs": [
        {
          "internalType": "uint256",
          "name": "amount",
          "type": "uint256"
        },
        {
          "internalType": "uint256",
          "name": "price",
          "type": "uint256"
        }
      ],
      "stateMutability": "view",
      "type": "function"
    },
    {
      "inputs": [
        {
          "internalType": "address",
          "name": "_tokenAddress",
          "type": "address"
        },
        {
          "internalType": "uint256",
          "name": "_id",
          "type": "uint256"
        },
        {
          "internalType": "uint256",
          "name": "_amount",
          "type": "uint256"
        },
        {
          "internalType": "uint256",
          "name": "_price",
          "type": "uint256"
        }
      ],
      "name": "listItem",
      "outputs": [],
      "stateMutability": "nonpayable",
      "type": "function"
    },
    {
      "inputs": [
        {
          "internalType": "address",
          "name": "",
          "type": "address"
        },
        {
          "internalType": "address",
          "name": "",
          "type": "address"
        },
        {
          "internalType": "uint256[]",
          "name": "",
          "type": "uint256[]"
        },
        {
          "internalType": "uint256[]",
          "name": "",
          "type": "uint256[]"
        },
        {
          "internalType": "bytes",
          "name": "",
          "type": "bytes"
        }
      ],
      "name": "onERC1155BatchReceived",
      "outputs": [
        {
          "internalType": "bytes4",
          "name": "",
          "type": "bytes4"
        }
      ],
      "stateMutability": "nonpayable",
      "type": "function"
    },
    {
      "inputs": [
        {
          "internalType": "address",
          "name": "",
          "type": "address"
        },
        {
          "internalType": "address",
          "name": "",
          "type": "address"
        },
        {
          "internalType": "uint256",
          "name": "",
          "type": "uint256"
        },
        {
          "internalType": "uint256",
          "name": "",
          "type": "uint256"
        },
        {
          "internalType": "bytes",
          "name": "",
          "type": "bytes"
        }
      ],
      "name": "onERC1155Received",
      "outputs": [
        {
          "internalType": "bytes4",
          "name": "",
          "type": "bytes4"
        }
      ],
      "stateMutability": "nonpayable",
      "type": "function"
    },
    {
      "inputs": [
        {
          "internalType": "address",
          "name": "_tokenAddress",
          "type": "address"
        },
        {
          "internalType": "uint256",
          "name": "_id",
          "type": "uint256"
        },
        {
          "internalType": "uint256",
          "name": "_amount",
          "type": "uint256"
        }
      ],
      "name": "removeItem",
      "outputs": [],
      "stateMutability": "nonpayable",
      "type": "function"
    },
    {
      "inputs": [
        {
          "internalType": "bytes4",
          "name": "interfaceId",
          "type": "bytes4"
        }
      ],
      "name": "supportsInterface",
      "outputs": [
        {
          "internalType": "bool",
          "name": "",
          "type": "bool"
        }
      ],
      "stateMutability": "view",
      "type": "function"
    }
  ],
  "bytecode": "0x608060405234801561001057600080fd5b506115c5806100206000396000f3fe60806040526004361061007b5760003560e01c8063b88fa1c01161004e578063b88fa1c014610140578063bc197c811461017e578063bcb143ef146101bb578063f23a6e61146101e45761007b565b806301ffc9a714610080578063266fa895146100bd57806366de6ebb146100d9578063b4c3577114610102575b600080fd5b34801561008c57600080fd5b506100a760048036038101906100a29190610de6565b610221565b6040516100b4919061116c565b60405180910390f35b6100d760048036038101906100d29190610b0b565b61029b565b005b3480156100e557600080fd5b5061010060048036038101906100fb9190610d0b565b610502565b005b34801561010e57600080fd5b5061012960048036038101906101249190610c2d565b6106c8565b604051610137929190611282565b60405180910390f35b34801561014c57600080fd5b5061016760048036038101906101629190610dbd565b610728565b604051610175929190611282565b60405180910390f35b34801561018a57600080fd5b506101a560048036038101906101a09190610b6e565b61074c565b6040516101b29190611187565b60405180910390f35b3480156101c757600080fd5b506101e260048036038101906101dd9190610d5a565b610761565b005b3480156101f057600080fd5b5061020b60048036038101906102069190610c7c565b610925565b6040516102189190611187565b60405180910390f35b60007f4e2312e0000000000000000000000000000000000000000000000000000000007bffffffffffffffffffffffffffffffffffffffffffffffffffffffff1916827bffffffffffffffffffffffffffffffffffffffffffffffffffffffff1916148061029457506102938261093a565b5b9050919050565b60008114156102df576040517f08c379a00000000000000000000000000000000000000000000000000000000081526004016102d6906111c2565b60405180910390fd5b60008484846040516020016102f6939291906110a6565b60405160208183030381529060405280519060200120905060008060008381526020019081526020016000209050828160000154101561036b576040517f08c379a000000000000000000000000000000000000000000000000000000000815260040161036290611262565b60405180910390fd5b600081600101549050600084826103829190611391565b9050803410156103c7576040517f08c379a00000000000000000000000000000000000000000000000000000000081526004016103be90611202565b60405180910390fd5b8483600001546103d791906113eb565b83600001819055508773ffffffffffffffffffffffffffffffffffffffff166108fc829081150290604051600060405180830381858888f19350505050158015610425573d6000803e3d6000fd5b503373ffffffffffffffffffffffffffffffffffffffff166108fc823461044c91906113eb565b9081150290604051600060405180830381858888f19350505050158015610477573d6000803e3d6000fd5b508673ffffffffffffffffffffffffffffffffffffffff168873ffffffffffffffffffffffffffffffffffffffff163373ffffffffffffffffffffffffffffffffffffffff167fb10ea0416ebf85c36e0ba132a99151eb95174ec53fb76bbbba5058de53074c918989876040516104f0939291906112ab565b60405180910390a45050505050505050565b6000811415610546576040517f08c379a000000000000000000000000000000000000000000000000000000000815260040161053d906111a2565b60405180910390fd5b600033848460405160200161055d939291906110dd565b6040516020818303038152906040528051906020012090506000806000838152602001908152602001600020905082816000015410156105d2576040517f08c379a00000000000000000000000000000000000000000000000000000000081526004016105c990611242565b60405180910390fd5b8281600001546105e291906113eb565b81600001819055508473ffffffffffffffffffffffffffffffffffffffff1663f242432a303387876040518563ffffffff1660e01b81526004016106299493929190611114565b600060405180830381600087803b15801561064357600080fd5b505af1158015610657573d6000803e3d6000fd5b505050508473ffffffffffffffffffffffffffffffffffffffff163373ffffffffffffffffffffffffffffffffffffffff167e217e26650c4967b729231fe20b51f925d29551961ca00166a67709c094871a86866040516106b9929190611282565b60405180910390a35050505050565b60008060008585856040516020016106e2939291906110dd565b6040516020818303038152906040528051906020012090506000806000838152602001908152602001600020905080600001549350806001015492505050935093915050565b60006020528060005260406000206000915090508060000154908060010154905082565b600063bc197c8160e01b905095945050505050565b60008214156107a5576040517f08c379a000000000000000000000000000000000000000000000000000000000815260040161079c90611222565b60405180910390fd5b60003385856040516020016107bc939291906110dd565b604051602081830303815290604052805190602001209050600080600083815260200190815260200160002090506000816000015414610831576040517f08c379a0000000000000000000000000000000000000000000000000000000008152600401610828906111e2565b60405180910390fd5b8381600001819055508281600101819055508573ffffffffffffffffffffffffffffffffffffffff1663f242432a333088886040518563ffffffff1660e01b81526004016108829493929190611114565b600060405180830381600087803b15801561089c57600080fd5b505af11580156108b0573d6000803e3d6000fd5b505050508573ffffffffffffffffffffffffffffffffffffffff163373ffffffffffffffffffffffffffffffffffffffff167f63dae334df4ed88251ae019d58f6e1d070bc2ce749a4d5d8670852420323dc09878787604051610915939291906112ab565b60405180910390a3505050505050565b600063f23a6e6160e01b905095945050505050565b60007f01ffc9a7000000000000000000000000000000000000000000000000000000007bffffffffffffffffffffffffffffffffffffffffffffffffffffffff1916827bffffffffffffffffffffffffffffffffffffffffffffffffffffffff1916149050919050565b60006109b76109b284611313565b6112e2565b905080838252602082019050828560208602820111156109d657600080fd5b60005b85811015610a0657816109ec8882610af6565b8452602084019350602083019250506001810190506109d9565b5050509392505050565b6000610a23610a1e8461133f565b6112e2565b905082815260208101848484011115610a3b57600080fd5b610a468482856114af565b509392505050565b600081359050610a5d8161151c565b92915050565b600081359050610a7281611533565b92915050565b600082601f830112610a8957600080fd5b8135610a998482602086016109a4565b91505092915050565b600081359050610ab18161154a565b92915050565b600081359050610ac681611561565b92915050565b600082601f830112610add57600080fd5b8135610aed848260208601610a10565b91505092915050565b600081359050610b0581611578565b92915050565b60008060008060808587031215610b2157600080fd5b6000610b2f87828801610a63565b9450506020610b4087828801610a4e565b9350506040610b5187828801610af6565b9250506060610b6287828801610af6565b91505092959194509250565b600080600080600060a08688031215610b8657600080fd5b6000610b9488828901610a4e565b9550506020610ba588828901610a4e565b945050604086013567ffffffffffffffff811115610bc257600080fd5b610bce88828901610a78565b935050606086013567ffffffffffffffff811115610beb57600080fd5b610bf788828901610a78565b925050608086013567ffffffffffffffff811115610c1457600080fd5b610c2088828901610acc565b9150509295509295909350565b600080600060608486031215610c4257600080fd5b6000610c5086828701610a4e565b9350506020610c6186828701610a4e565b9250506040610c7286828701610af6565b9150509250925092565b600080600080600060a08688031215610c9457600080fd5b6000610ca288828901610a4e565b9550506020610cb388828901610a4e565b9450506040610cc488828901610af6565b9350506060610cd588828901610af6565b925050608086013567ffffffffffffffff811115610cf257600080fd5b610cfe88828901610acc565b9150509295509295909350565b600080600060608486031215610d2057600080fd5b6000610d2e86828701610a4e565b9350506020610d3f86828701610af6565b9250506040610d5086828701610af6565b9150509250925092565b60008060008060808587031215610d7057600080fd5b6000610d7e87828801610a4e565b9450506020610d8f87828801610af6565b9350506040610da087828801610af6565b9250506060610db187828801610af6565b91505092959194509250565b600060208284031215610dcf57600080fd5b6000610ddd84828501610aa2565b91505092915050565b600060208284031215610df857600080fd5b6000610e0684828501610ab7565b91505092915050565b610e1881611431565b82525050565b610e278161141f565b82525050565b610e3681611443565b82525050565b610e4581611459565b82525050565b6000610e58601f83611380565b91507f4d61726b6574506c6163653a206e6f7468696e6720746f2072656d6f76652e006000830152602082019050919050565b6000610e98601c83611380565b91507f4d61726b6574506c6163653a206e6f7468696e6720746f206275792e000000006000830152602082019050919050565b6000610ed8602b83611380565b91507f4d61726b6574506c6163653a2063616e63656c206578697374696e67206c697360008301527f74696e672066697273742e0000000000000000000000000000000000000000006020830152604082019050919050565b6000610f3e603283611380565b91507f4d61726b6574506c6163653a206e6f7420656e6f756768742045544820746f2060008301527f636f76657220746f74616c2070726963652e00000000000000000000000000006020830152604082019050919050565b6000610fa4601d83611380565b91507f4d61726b6574506c6163653a206e6f7468696e6720746f206c6973742e0000006000830152602082019050919050565b6000610fe4602283611380565b91507f4d61726b6574506c6163653a206e6f7420656e6f75676820746f2072656d6f7660008301527f652e0000000000000000000000000000000000000000000000000000000000006020830152604082019050919050565b600061104a60008361136f565b9150600082019050919050565b6000611064602083611380565b91507f4d61726b6574506c6163653a206e6f7420656e6f75676820746f2073656c6c2e6000830152602082019050919050565b6110a0816114a5565b82525050565b60006060820190506110bb6000830186610e0f565b6110c86020830185610e1e565b6110d56040830184611097565b949350505050565b60006060820190506110f26000830186610e1e565b6110ff6020830185610e1e565b61110c6040830184611097565b949350505050565b600060a0820190506111296000830187610e1e565b6111366020830186610e1e565b6111436040830185611097565b6111506060830184611097565b81810360808301526111618161103d565b905095945050505050565b60006020820190506111816000830184610e2d565b92915050565b600060208201905061119c6000830184610e3c565b92915050565b600060208201905081810360008301526111bb81610e4b565b9050919050565b600060208201905081810360008301526111db81610e8b565b9050919050565b600060208201905081810360008301526111fb81610ecb565b9050919050565b6000602082019050818103600083015261121b81610f31565b9050919050565b6000602082019050818103600083015261123b81610f97565b9050919050565b6000602082019050818103600083015261125b81610fd7565b9050919050565b6000602082019050818103600083015261127b81611057565b9050919050565b60006040820190506112976000830185611097565b6112a46020830184611097565b9392505050565b60006060820190506112c06000830186611097565b6112cd6020830185611097565b6112da6040830184611097565b949350505050565b6000604051905081810181811067ffffffffffffffff82111715611309576113086114ed565b5b8060405250919050565b600067ffffffffffffffff82111561132e5761132d6114ed565b5b602082029050602081019050919050565b600067ffffffffffffffff82111561135a576113596114ed565b5b601f19601f8301169050602081019050919050565b600082825260208201905092915050565b600082825260208201905092915050565b600061139c826114a5565b91506113a7836114a5565b9250817fffffffffffffffffffffffffffffffffffffffffffffffffffffffffffffffff04831182151516156113e0576113df6114be565b5b828202905092915050565b60006113f6826114a5565b9150611401836114a5565b925082821015611414576114136114be565b5b828203905092915050565b600061142a82611485565b9050919050565b600061143c82611485565b9050919050565b60008115159050919050565b6000819050919050565b60007fffffffff0000000000000000000000000000000000000000000000000000000082169050919050565b600073ffffffffffffffffffffffffffffffffffffffff82169050919050565b6000819050919050565b82818337600083830152505050565b7f4e487b7100000000000000000000000000000000000000000000000000000000600052601160045260246000fd5b7f4e487b7100000000000000000000000000000000000000000000000000000000600052604160045260246000fd5b6115258161141f565b811461153057600080fd5b50565b61153c81611431565b811461154757600080fd5b50565b6115538161144f565b811461155e57600080fd5b50565b61156a81611459565b811461157557600080fd5b50565b611581816114a5565b811461158c57600080fd5b5056fea26469706673582212202063a661081b3649df8dc2784500d3988accd2f37ad1a54ffd63acde6408f12e64736f6c63430008000033",
  "linkReferences": {},
  "deployedLinkReferences": {}
}